:060000000A128A11AD2F67
:100F5A0083010A128A11B12F8316031387018312A0
:100F6A00031387010C3097009101FF308316031396
:100F7A009200073083120313920096019501C52F40
:100F8A00F301F4017408803AFF0083307F02031DE5
:100F9A00D02FFF307302031CD32FD42FD62FC52F87
:100FAA00C52F73088312031395000330F2008A30A9
:100FBA00F1005630F000F00BE02FF10BE02FF20BAE
:100FCA00E02FE72F0130F3070318F40A0030F40783
:100FDA007408803AFF0083307F02031DF62FFF302A
:100FEA007302031CF92FFA2FD62FC52FC52FC52F31
:060FFA000A128A11002812
:02400E003A3F37
:00000001FF
